:100000000C943E000C945B000C945B000C945B0021
:100010000C945B000C945B000C945B000C945B00F4
:100020000C945B000C945B000C945B000C945B00E4
:100030000C945B000C945B000C945B000C945B00D4
:100040000C945B000C945B000C945B000C945B00C4
:100050000C94B8000C945B000C945B000C945B0057
:100060000C945B000C945B000C945B000C945B00A4
:100070000C945B000C945B000C945B0011241FBE7D
:10008000CFEFD4E0DEBFCDBF11E0A0E0B1E0E6E706
:10009000F3E002C005900D92A031B107D9F713E04B
:1000A000A0E1B1E001C01D92A430B107E1F70E94C8
:1000B000E2000C94B9010C9400009093C500809369
:1000C000C400E0ECF0E080818260808388E9809366
:1000D000C10086E08093C20078940895982F8091A3
:1000E000C00085FFFCCF9093C60008958091C000AA
:1000F00087FFFCCF8091C600089590E0282F2170E3
:1001000022B9119A119895958795282F217022B9B7
:10011000119A119895958795282F217022B9119AD7
:10012000119895958795282F217022B9119A1198C9
:1001300095958795282F217022B9119A1198959538
:100140008795282F217022B9119A11989595879536
:10015000282F217022B9119A119895958795817051
:1001600082B9119A1198089584E082B912B808955D
:100170001F920F920FB60F9211242F938F939F937C
:10018000EF93FF932091C6002234B9F080911001C3
:1001900090911101FC01EE5EFE4F20830196909339
:1001A000110180931001FF91EF919F918F912F91F9
:1001B0000F900FBE0F901F90189510921101109282
:1001C0001001F1CFCF92DF92FF920F931F93DF9335
:1001D000CF9300D000D0CDB7DEB712B887E081B999
:1001E00085E090E00E945D008CEC898382E28A8346
:1001F00081E18B831C82DE0111968E010B5F1F4F04
:10020000F4E0FF2EE4E1CE2EE1E0DE2E8C91682FAB
:1002100070E040E050E020E030E0CB01022E02C070
:10022000959587950A94E2F7817082B9119A119891
:100230002F5F3F4F2830310581F74F5F5F4F4335C8
:10024000510549F7F2B812B880E090E0F601319715
:10025000F1F701962BE188359207C1F71196A017A7
:10026000B107A1F610E004E01F5F1F70E12FF0E07E
:10027000E050FF4FE081AEEFB2E057C050E0E91729
:1002800008F46AC040E0E21708F46AC080E0E317AF
:1002900008F46AC030E090E0E61708F491E0952B8E
:1002A000942B20E0E71708F421E0822B832B829522
:1002B000807F892B90E0282F217022B9119A119804
:1002C00095958795282F217022B9119A11989595A7
:1002D0008795282F217022B9119A119895958795A5
:1002E000282F217022B9119A119895958795282F5A
:1002F000217022B9119A119895958795282F217010
:1003000022B9119A119895958795282F217022B9B5
:10031000119A119895958795817082B9119A1198C3
:10032000169781E0AC30B80709F12C9111963C91F9
:10033000119712967C91129714969C91149715968A
:100340006C91159713968C911397E81708F096CF38
:100350005CE0E91708F096CF42E0E21708F096CF8C
:100360008CE0E31708F096CF32E095CF02B912B8CF
:060370007BCFF894FFCFE3
:10037600088848C828A868E8189858D838B878F877
:00000001FF
