:100000000C9434000C9451000C9451000C94510049
:100010000C9451000C9451000C9451000C9451001C
:100020000C9451000C9451000C9451000C9451000C
:100030000C9451000C9451000C9451000C945100FC
:100040000C9451000C9451000C94AD000C94510090
:100050000C9451000C9451000C9451000C945100DC
:100060000C9451000C94510011241FBECFEFD8E026
:10007000DEBFCDBF11E0A0E0B1E0E8E4F3E002C0F4
:1000800005900D92A031B107D9F714E0A0E1B1E0DD
:1000900001C01D92A639B107E1F70E94DD000C9462
:1000A000A2010C9400009093C5008093C400E0EC82
:1000B000F0E080818260808388E98093C10086E0DF
:1000C0008093C20078940895982F8091C00085FF96
:1000D000FCCF9093C60008958091C00087FFFCCFAD
:1000E0008091C600089590E0282F217025B92A9AA2
:1000F0002A9895958795282F217025B92A9A2A98AC
:1001000095958795282F217025B92A9A2A98959533
:100110008795282F217025B92A9A2A989595879531
:10012000282F217025B92A9A2A9895958795282FE6
:10013000217025B92A9A2A9895958795282F21709C
:1001400025B92A9A2A9895958795817085B92A9A12
:100150002A980895299A299808951F920F920FB608
:100160000F9211242F938F939F93EF93FF932091DE
:10017000C6008091C00085FFFCCF2093C6002234CA
:10018000B9F08091100190911101FC01EE5EFE4FDB
:10019000208301969093110180931001FF91EF91BC
:1001A0009F918F912F910F900FBE0F901F901895D8
:1001B0001092110110921001F1CF6F927F928F92E5
:1001C0009F92AF92BF92CF92DF92EF92FF920F93E6
:1001D0001F93DF93CF9300D000D0CDB7DEB715B813
:1001E00087E084B988E090E00E9453008CEC89831A
:1001F00082E28A8381E18B831C823E010894611C28
:10020000711CE0E9CE2EE1E0DE2E0894811C911CE9
:10021000C40164E070E00E947B01F301E80FF91F64
:10022000808190E0EE24FF24182F11709C013595F9
:10023000279535952795AC01559547955595479543
:1002400055954795BC017595679575956795759515
:10025000679575956795FC01F595E795F595E79593
:10026000F595E795F595E795F595E795DC010A2E67
:10027000AB2F000CAA1FBB0B000CAA1FBB1F5C01FD
:10028000AA0CAB2CAA1CBB08959587958170217090
:1002900041706170E170A1700A2D017015B92A9A40
:1002A0002A9885B92A9A2A9825B92A9A2A9845B966
:1002B0002A9A2A9865B92A9A2A98E5B92A9A2A98F0
:1002C000A5B92A9A2A9805B92A9A2A980894E11C6D
:1002D000F11C96E9E916F10409F7299A299820E01A
:1002E00030E0C6010197F1F72F5F3F4F8BE12835D2
:1002F0003807B9F78ACF97FB092E07260AD077FD72
:1003000004D00CD006D000201AF4709561957F4F70
:100310000895F6F7909581959F4F0895AA1BBB1BF2
:1003200051E107C0AA1FBB1FA617B70710F0A61BF5
:10033000B70B881F991F5A95A9F780959095BC0116
:08034000CD010895F894FFCFF0
:10034800000401050206030701020408102040808A
:00000001FF
