:100000000C943E000C945B000C945B000C945B0021
:100010000C945B000C945B000C945B000C945B00F4
:100020000C945B000C945B000C945B000C945B00E4
:100030000C945B000C945B000C945B000C945B00D4
:100040000C945B000C945B000C945B000C945B00C4
:100050000C94B7000C945B000C945B000C945B0058
:100060000C945B000C945B000C945B000C945B00A4
:100070000C945B000C945B000C945B0011241FBE7D
:10008000CFEFD4E0DEBFCDBF11E0A0E0B1E0EEE6FF
:10009000F3E002C005900D92A031B107D9F713E04B
:1000A000A0E1B1E001C01D92AA36B107E1F70E94BC
:1000B000E1000C94B5010C9400009093C50080936E
:1000C000C400E0ECF0E080818260808388E9809366
:1000D000C10086E08093C20078940895982F8091A3
:1000E000C00085FFFCCF9093C60008958091C000AA
:1000F00087FFFCCF8091C600089590E0282F2170E3
:1001000022B9119A119895958795282F217022B9B7
:10011000119A119895958795282F217022B9119AD7
:10012000119895958795282F217022B9119A1198C9
:1001300095958795282F217022B9119A1198959538
:100140008795282F217022B9119A11989595879536
:10015000282F217022B9119A119895958795817051
:1001600082B9119A11980895129A129808951F92BF
:100170000F920FB60F9211242F938F939F93EF93AB
:10018000FF932091C6002234B9F080911001909124
:100190001101FC01EE5EFE4F208301969093110148
:1001A00080931001FF91EF919F918F912F910F906C
:1001B0000FBE0F901F901895109211011092100110
:1001C000F1CFEF92FF920F931F93DF93CF9300D065
:1001D00000D0CDB7DEB712B887E081B985E090E0F6
:1001E0000E945D008CEC898382E28A8381E18B83AB
:1001F0001C82DE0111968E010B5F1F4F74E1E72E0A
:1002000071E0F72E8C91682F70E040E050E020E024
:1002100030E0CB01022E02C0959587950A94E2F753
:10022000817082B9119A11982F5F3F4F28303105A4
:1002300081F74F5F5F4F4436510549F7129A129884
:1002400080E090E0F7013197F1F701962BE18835D6
:100250009207C1F71196A017B107A1F610E0E12FA0
:10026000F0E0E050FF4FE081F0E0E85FFE4FE0811A
:10027000A4E6B3E056C070E09E2309F069C060E0D8
:100280002E2309F069C080E03E2309F032E090E0BF
:100290004E2309F091E0972B962B20E05E2309F086
:1002A00021E0822B832B8295807F892B90E0282F61
:1002B000217022B9119A119895958795282F217050
:1002C00022B9119A119895958795282F217022B9F6
:1002D000119A119895958795282F217022B9119A16
:1002E000119895958795282F217022B9119A119808
:1002F00095958795282F217022B9119A1198959577
:100300008795282F217022B9119A11989595879574
:10031000817082B9119A1198169781E0AC30B807B4
:10032000E9F02C9111963C91119712965C911297DD
:1003300014969C91149715964C91159713968C9141
:1003400013978E2309F497CF7CE09E2309F497CF6F
:1003500062E02E2309F497CF8CE096CF129A129880
:0E0360001F5F183008F07ACF7ACFF894FFCFE5
:10036E000004010502060307010204081020408064
:00000001FF
